{
    "_format": "hh-sol-artifact-1",
    "contractName": "Collection",
    "sourceName": "contracts/Collection.sol",
    "abi": [
        {
            "inputs": [],
            "stateMutability": "nonpayable",
            "type": "constructor"
        },
        {
            "anonymous": false,
            "inputs": [
                {
                    "indexed": true,
                    "internalType": "address",
                    "name": "owner",
                    "type": "address"
                },
                {
                    "indexed": true,
                    "internalType": "address",
                    "name": "approved",
                    "type": "address"
                },
                {
                    "indexed": true,
                    "internalType": "uint256",
                    "name": "tokenId",
                    "type": "uint256"
                }
            ],
            "name": "Approval",
            "type": "event"
        },
        {
            "anonymous": false,
            "inputs": [
                {
                    "indexed": true,
                    "internalType": "address",
                    "name": "owner",
                    "type": "address"
                },
                {
                    "indexed": true,
                    "internalType": "address",
                    "name": "operator",
                    "type": "address"
                },
                {
                    "indexed": false,
                    "internalType": "bool",
                    "name": "approved",
                    "type": "bool"
                }
            ],
            "name": "ApprovalForAll",
            "type": "event"
        },
        {
            "anonymous": false,
            "inputs": [
                {
                    "indexed": true,
                    "internalType": "address",
                    "name": "previousOwner",
                    "type": "address"
                },
                {
                    "indexed": true,
                    "internalType": "address",
                    "name": "newOwner",
                    "type": "address"
                }
            ],
            "name": "OwnershipTransferred",
            "type": "event"
        },
        {
            "anonymous": false,
            "inputs": [
                {
                    "indexed": true,
                    "internalType": "address",
                    "name": "from",
                    "type": "address"
                },
                {
                    "indexed": true,
                    "internalType": "address",
                    "name": "to",
                    "type": "address"
                },
                {
                    "indexed": true,
                    "internalType": "uint256",
                    "name": "tokenId",
                    "type": "uint256"
                }
            ],
            "name": "Transfer",
            "type": "event"
        },
        {
            "inputs": [],
            "name": "LIMIT_PER_ADDRESS",
            "outputs": [
                {
                    "internalType": "uint256",
                    "name": "",
                    "type": "uint256"
                }
            ],
            "stateMutability": "view",
            "type": "function"
        },
        {
            "inputs": [],
            "name": "MAX_SUPPLY",
            "outputs": [
                {
                    "internalType": "uint256",
                    "name": "",
                    "type": "uint256"
                }
            ],
            "stateMutability": "view",
            "type": "function"
        },
        {
            "inputs": [],
            "name": "PRICE_PER_TOKEN",
            "outputs": [
                {
                    "internalType": "uint256",
                    "name": "",
                    "type": "uint256"
                }
            ],
            "stateMutability": "view",
            "type": "function"
        },
        {
            "inputs": [
                {
                    "internalType": "address",
                    "name": "to",
                    "type": "address"
                },
                {
                    "internalType": "uint256",
                    "name": "tokenId",
                    "type": "uint256"
                }
            ],
            "name": "approve",
            "outputs": [],
            "stateMutability": "nonpayable",
            "type": "function"
        },
        {
            "inputs": [
                {
                    "internalType": "address",
                    "name": "owner",
                    "type": "address"
                }
            ],
            "name": "balanceOf",
            "outputs": [
                {
                    "internalType": "uint256",
                    "name": "",
                    "type": "uint256"
                }
            ],
            "stateMutability": "view",
            "type": "function"
        },
        {
            "inputs": [
                {
                    "internalType": "uint256",
                    "name": "tokenId",
                    "type": "uint256"
                }
            ],
            "name": "getApproved",
            "outputs": [
                {
                    "internalType": "address",
                    "name": "",
                    "type": "address"
                }
            ],
            "stateMutability": "view",
            "type": "function"
        },
        {
            "inputs": [
                {
                    "internalType": "address",
                    "name": "owner",
                    "type": "address"
                },
                {
                    "internalType": "address",
                    "name": "operator",
                    "type": "address"
                }
            ],
            "name": "isApprovedForAll",
            "outputs": [
                {
                    "internalType": "bool",
                    "name": "",
                    "type": "bool"
                }
            ],
            "stateMutability": "view",
            "type": "function"
        },
        {
            "inputs": [
                {
                    "internalType": "string",
                    "name": "tokenURI",
                    "type": "string"
                }
            ],
            "name": "mintNFT",
            "outputs": [
                {
                    "internalType": "uint256",
                    "name": "",
                    "type": "uint256"
                }
            ],
            "stateMutability": "payable",
            "type": "function"
        },
        {
            "inputs": [],
            "name": "name",
            "outputs": [
                {
                    "internalType": "string",
                    "name": "",
                    "type": "string"
                }
            ],
            "stateMutability": "view",
            "type": "function"
        },
        {
            "inputs": [],
            "name": "owner",
            "outputs": [
                {
                    "internalType": "address",
                    "name": "",
                    "type": "address"
                }
            ],
            "stateMutability": "view",
            "type": "function"
        },
        {
            "inputs": [
                {
                    "internalType": "uint256",
                    "name": "tokenId",
                    "type": "uint256"
                }
            ],
            "name": "ownerOf",
            "outputs": [
                {
                    "internalType": "address",
                    "name": "",
                    "type": "address"
                }
            ],
            "stateMutability": "view",
            "type": "function"
        },
        {
            "inputs": [],
            "name": "renounceOwnership",
            "outputs": [],
            "stateMutability": "nonpayable",
            "type": "function"
        },
        {
            "inputs": [
                {
                    "internalType": "address",
                    "name": "from",
                    "type": "address"
                },
                {
                    "internalType": "address",
                    "name": "to",
                    "type": "address"
                },
                {
                    "internalType": "uint256",
                    "name": "tokenId",
                    "type": "uint256"
                }
            ],
            "name": "safeTransferFrom",
            "outputs": [],
            "stateMutability": "nonpayable",
            "type": "function"
        },
        {
            "inputs": [
                {
                    "internalType": "address",
                    "name": "from",
                    "type": "address"
                },
                {
                    "internalType": "address",
                    "name": "to",
                    "type": "address"
                },
                {
                    "internalType": "uint256",
                    "name": "tokenId",
                    "type": "uint256"
                },
                {
                    "internalType": "bytes",
                    "name": "_data",
                    "type": "bytes"
                }
            ],
            "name": "safeTransferFrom",
            "outputs": [],
            "stateMutability": "nonpayable",
            "type": "function"
        },
        {
            "inputs": [
                {
                    "internalType": "address",
                    "name": "operator",
                    "type": "address"
                },
                {
                    "internalType": "bool",
                    "name": "approved",
                    "type": "bool"
                }
            ],
            "name": "setApprovalForAll",
            "outputs": [],
            "stateMutability": "nonpayable",
            "type": "function"
        },
        {
            "inputs": [
                {
                    "internalType": "uint256",
                    "name": "limit",
                    "type": "uint256"
                }
            ],
            "name": "setLimit",
            "outputs": [],
            "stateMutability": "nonpayable",
            "type": "function"
        },
        {
            "inputs": [
                {
                    "internalType": "uint256",
                    "name": "max_supply",
                    "type": "uint256"
                }
            ],
            "name": "setMaxSupply",
            "outputs": [],
            "stateMutability": "nonpayable",
            "type": "function"
        },
        {
            "inputs": [
                {
                    "internalType": "uint256",
                    "name": "price",
                    "type": "uint256"
                }
            ],
            "name": "setPrice",
            "outputs": [],
            "stateMutability": "nonpayable",
            "type": "function"
        },
        {
            "inputs": [
                {
                    "internalType": "bytes4",
                    "name": "interfaceId",
                    "type": "bytes4"
                }
            ],
            "name": "supportsInterface",
            "outputs": [
                {
                    "internalType": "bool",
                    "name": "",
                    "type": "bool"
                }
            ],
            "stateMutability": "view",
            "type": "function"
        },
        {
            "inputs": [],
            "name": "symbol",
            "outputs": [
                {
                    "internalType": "string",
                    "name": "",
                    "type": "string"
                }
            ],
            "stateMutability": "view",
            "type": "function"
        },
        {
            "inputs": [
                {
                    "internalType": "uint256",
                    "name": "tokenId",
                    "type": "uint256"
                }
            ],
            "name": "tokenURI",
            "outputs": [
                {
                    "internalType": "string",
                    "name": "",
                    "type": "string"
                }
            ],
            "stateMutability": "view",
            "type": "function"
        },
        {
            "inputs": [
                {
                    "internalType": "address",
                    "name": "from",
                    "type": "address"
                },
                {
                    "internalType": "address",
                    "name": "to",
                    "type": "address"
                },
                {
                    "internalType": "uint256",
                    "name": "tokenId",
                    "type": "uint256"
                }
            ],
            "name": "transferFrom",
            "outputs": [],
            "stateMutability": "nonpayable",
            "type": "function"
        },
        {
            "inputs": [
                {
                    "internalType": "address",
                    "name": "newOwner",
                    "type": "address"
                }
            ],
            "name": "transferOwnership",
            "outputs": [],
            "stateMutability": "nonpayable",
            "type": "function"
        },
        {
            "inputs": [],
            "name": "withdrawMoney",
            "outputs": [],
            "stateMutability": "nonpayable",
            "type": "function"
        }
    ],
    "bytecode": "0x6080604052662386f26fc10000600c556002600d556005600e553480156200002657600080fd5b506040518060400160405280600a81526020017f436f6c6c656374696f6e000000000000000000000000000000000000000000008152506040518060400160405280600381526020017f4e465400000000000000000000000000000000000000000000000000000000008152508160009080519060200190620000ab929190620001bb565b508060019080519060200190620000c4929190620001bb565b505050620000e7620000db620000ed60201b60201c565b620000f560201b60201c565b620002d0565b600033905090565b6000600760009054906101000a900473ffffffffffffffffffffffffffffffffffffffff16905081600760006101000a81548173ffffffffffffffffffffffffffffffffffffffff021916908373ffffffffffffffffffffffffffffffffffffffff1602179055508173ffffffffffffffffffffffffffffffffffffffff168173ffffffffffffffffffffffffffffffffffffffff167f8be0079c531659141344cd1fd0a4f28419497f9722a3daafe3b4186f6b6457e060405160405180910390a35050565b828054620001c9906200026b565b90600052602060002090601f016020900481019282620001ed576000855562000239565b82601f106200020857805160ff191683800117855562000239565b8280016001018555821562000239579182015b82811115620002385782518255916020019190600101906200021b565b5b5090506200024891906200024c565b5090565b5b80821115620002675760008160009055506001016200024d565b5090565b600060028204905060018216806200028457607f821691505b602082108114156200029b576200029a620002a1565b5b50919050565b7f4e487b7100000000000000000000000000000000000000000000000000000000600052602260045260246000fd5b61386a80620002e06000396000f3fe60806040526004361061014b5760003560e01c8063715018a6116100b6578063ac4460021161006f578063ac4460021461047c578063b88d4fde14610493578063c87b56dd146104bc578063e985e9c5146104f9578063f2fde38b14610536578063fb37e8831461055f5761014b565b8063715018a614610392578063833b9499146103a95780638da5cb5b146103d457806391b7f5ed146103ff57806395d89b4114610428578063a22cb465146104535761014b565b806332cb6b0c1161010857806332cb6b0c14610270578063417bac1a1461029b57806342842e0e146102c65780636352211e146102ef5780636f8b44b01461032c57806370a08231146103555761014b565b806301ffc9a71461015057806306fdde031461018d578063081812fc146101b8578063095ea7b3146101f557806323b872dd1461021e57806327ea6f2b14610247575b600080fd5b34801561015c57600080fd5b50610177600480360381019061017291906125cd565b61058f565b6040516101849190612afd565b60405180910390f35b34801561019957600080fd5b506101a2610671565b6040516101af9190612b18565b60405180910390f35b3480156101c457600080fd5b506101df60048036038101906101da9190612660565b610703565b6040516101ec9190612a96565b60405180910390f35b34801561020157600080fd5b5061021c60048036038101906102179190612591565b610788565b005b34801561022a57600080fd5b506102456004803603810190610240919061248b565b6108a0565b005b34801561025357600080fd5b5061026e60048036038101906102699190612660565b610900565b005b34801561027c57600080fd5b50610285610986565b6040516102929190612dfa565b60405180910390f35b3480156102a757600080fd5b506102b061098c565b6040516102bd9190612dfa565b60405180910390f35b3480156102d257600080fd5b506102ed60048036038101906102e8919061248b565b610992565b005b3480156102fb57600080fd5b5061031660048036038101906103119190612660565b6109b2565b6040516103239190612a96565b60405180910390f35b34801561033857600080fd5b50610353600480360381019061034e9190612660565b610a64565b005b34801561036157600080fd5b5061037c60048036038101906103779190612426565b610aea565b6040516103899190612dfa565b60405180910390f35b34801561039e57600080fd5b506103a7610ba2565b005b3480156103b557600080fd5b506103be610c2a565b6040516103cb9190612dfa565b60405180910390f35b3480156103e057600080fd5b506103e9610c30565b6040516103f69190612a96565b60405180910390f35b34801561040b57600080fd5b5061042660048036038101906104219190612660565b610c5a565b005b34801561043457600080fd5b5061043d610ce0565b60405161044a9190612b18565b60405180910390f35b34801561045f57600080fd5b5061047a60048036038101906104759190612555565b610d72565b005b34801561048857600080fd5b50610491610d88565b005b34801561049f57600080fd5b506104ba60048036038101906104b591906124da565b610e53565b005b3480156104c857600080fd5b506104e360048036038101906104de9190612660565b610eb5565b6040516104f09190612b18565b60405180910390f35b34801561050557600080fd5b50610520600480360381019061051b919061244f565b611007565b60405161052d9190612afd565b60405180910390f35b34801561054257600080fd5b5061055d60048036038101906105589190612426565b61109b565b005b6105796004803603810190610574919061261f565b611193565b6040516105869190612dfa565b60405180910390f35b60007f80ac58cd000000000000000000000000000000000000000000000000000000007bffffffffffffffffffffffffffffffffffffffffffffffffffffffff1916827bffffffffffffffffffffffffffffffffffffffffffffffffffffffff1916148061065a57507f5b5e139f000000000000000000000000000000000000000000000000000000007bffffffffffffffffffffffffffffffffffffffffffffffffffffffff1916827bffffffffffffffffffffffffffffffffffffffffffffffffffffffff1916145b8061066a57506106698261143e565b5b9050919050565b60606000805461068090613094565b80601f01602080910402602001604051908101604052809291908181526020018280546106ac90613094565b80156106f95780601f106106ce576101008083540402835291602001916106f9565b820191906000526020600020905b8154815290600101906020018083116106dc57829003601f168201915b5050505050905090565b600061070e826114a8565b61074d576040517f08c379a000000000000000000000000000000000000000000000000000000000815260040161074490612d1a565b60405180910390fd5b6004600083815260200190815260200160002060009054906101000a900473ffffffffffffffffffffffffffffffffffffffff169050919050565b6000610793826109b2565b90508073ffffffffffffffffffffffffffffffffffffffff168373ffffffffffffffffffffffffffffffffffffffff161415610804576040517f08c379a00000000000000000000000000000000000000000000000000000000081526004016107fb90612d9a565b60405180910390fd5b8073ffffffffffffffffffffffffffffffffffffffff16610823611514565b73ffffffffffffffffffffffffffffffffffffffff16148061085257506108518161084c611514565b611007565b5b610891576040517f08c379a000000000000000000000000000000000000000000000000000000000815260040161088890612c3a565b60405180910390fd5b61089b838361151c565b505050565b6108b16108ab611514565b826115d5565b6108f0576040517f08c379a00000000000000000000000000000000000000000000000000000000081526004016108e790612dba565b60405180910390fd5b6108fb8383836116b3565b505050565b610908611514565b73ffffffffffffffffffffffffffffffffffffffff16610926610c30565b73ffffffffffffffffffffffffffffffffffffffff161461097c576040517f08c379a000000000000000000000000000000000000000000000000000000000815260040161097390612d3a565b60405180910390fd5b80600d8190555050565b600e5481565b600d5481565b6109ad83838360405180602001604052806000815250610e53565b505050565b6000806002600084815260200190815260200160002060009054906101000a900473ffffffffffffffffffffffffffffffffffffffff169050600073ffffffffffffffffffffffffffffffffffffffff168173ffffffffffffffffffffffffffffffffffffffff161415610a5b576040517f08c379a0000000000000000000000000000000000000000000000000000000008152600401610a5290612c7a565b60405180910390fd5b80915050919050565b610a6c611514565b73ffffffffffffffffffffffffffffffffffffffff16610a8a610c30565b73ffffffffffffffffffffffffffffffffffffffff1614610ae0576040517f08c379a0000000000000000000000000000000000000000000000000000000008152600401610ad790612d3a565b60405180910390fd5b80600e8190555050565b60008073ffffffffffffffffffffffffffffffffffffffff168273ffffffffffffffffffffffffffffffffffffffff161415610b5b576040517f08c379a0000000000000000000000000000000000000000000000000000000008152600401610b5290612c5a565b60405180910390fd5b600360008373ffffffffffffffffffffffffffffffffffffffff1673ffffffffffffffffffffffffffffffffffffffff168152602001908152602001600020549050919050565b610baa611514565b73ffffffffffffffffffffffffffffffffffffffff16610bc8610c30565b73ffffffffffffffffffffffffffffffffffffffff1614610c1e576040517f08c379a0000000000000000000000000000000000000000000000000000000008152600401610c1590612d3a565b60405180910390fd5b610c28600061191a565b565b600c5481565b6000600760009054906101000a900473ffffffffffffffffffffffffffffffffffffffff16905090565b610c62611514565b73ffffffffffffffffffffffffffffffffffffffff16610c80610c30565b73ffffffffffffffffffffffffffffffffffffffff1614610cd6576040517f08c379a0000000000000000000000000000000000000000000000000000000008152600401610ccd90612d3a565b60405180910390fd5b80600c8190555050565b606060018054610cef90613094565b80601f0160208091040260200160405190810160405280929190818152602001828054610d1b90613094565b8015610d685780601f10610d3d57610100808354040283529160200191610d68565b820191906000526020600020905b815481529060010190602001808311610d4b57829003601f168201915b5050505050905090565b610d84610d7d611514565b83836119e0565b5050565b610d90611514565b73ffffffffffffffffffffffffffffffffffffffff16610dae610c30565b73ffffffffffffffffffffffffffffffffffffffff1614610e04576040517f08c379a0000000000000000000000000000000000000000000000000000000008152600401610dfb90612d3a565b60405180910390fd5b60003390508073ffffffffffffffffffffffffffffffffffffffff166108fc479081150290604051600060405180830381858888f19350505050158015610e4f573d6000803e3d6000fd5b5050565b610e64610e5e611514565b836115d5565b610ea3576040517f08c379a0000000000000000000000000000000000000000000000000000000008152600401610e9a90612dba565b60405180910390fd5b610eaf84848484611b4d565b50505050565b6060610ec0826114a8565b610eff576040517f08c379a0000000000000000000000000000000000000000000000000000000008152600401610ef690612cfa565b60405180910390fd5b6000600660008481526020019081526020016000208054610f1f90613094565b80601f0160208091040260200160405190810160405280929190818152602001828054610f4b90613094565b8015610f985780601f10610f6d57610100808354040283529160200191610f98565b820191906000526020600020905b815481529060010190602001808311610f7b57829003601f168201915b505050505090506000610fa9611ba9565b9050600081511415610fbf578192505050611002565b600082511115610ff4578082604051602001610fdc929190612a72565b60405160208183030381529060405292505050611002565b610ffd84611bc0565b925050505b919050565b6000600560008473ffffffffffffffffffffffffffffffffffffffff1673ffffffffffffffffffffffffffffffffffffffff16815260200190815260200160002060008373ffffffffffffffffffffffffffffffffffffffff1673ffffffffffffffffffffffffffffffffffffffff16815260200190815260200160002060009054906101000a900460ff16905092915050565b6110a3611514565b73ffffffffffffffffffffffffffffffffffffffff166110c1610c30565b73ffffffffffffffffffffffffffffffffffffffff1614611117576040517f08c379a000000000000000000000000000000000000000000000000000000000815260040161110e90612d3a565b60405180910390fd5b600073ffffffffffffffffffffffffffffffffffffffff168173ffffffffffffffffffffffffffffffffffffffff161415611187576040517f08c379a000000000000000000000000000000000000000000000000000000000815260040161117e90612b5a565b60405180910390fd5b6111908161191a565b50565b600034600c5411156111da576040517f08c379a00000000000000000000000000000000000000000000000000000000081526004016111d190612cba565b60405180910390fd5b600d54600a60003373ffffffffffffffffffffffffffffffffffffffff1673ffffffffffffffffffffffffffffffffffffffff16815260200190815260200160002060009054906101000a900460ff1660ff161061126d576040517f08c379a000000000000000000000000000000000000000000000000000000000815260040161126490612dda565b60405180910390fd5b600e54600161127c6009611c67565b6112869190612edf565b11156112c7576040517f08c379a00000000000000000000000000000000000000000000000000000000081526004016112be90612d5a565b60405180910390fd5b6000600b836040516112d99190612a5b565b908152602001604051809103902060009054906101000a900460ff1660ff1614611338576040517f08c379a000000000000000000000000000000000000000000000000000000000815260040161132f90612bfa565b60405180910390fd5b6001600b8360405161134a9190612a5b565b908152602001604051809103902060008282829054906101000a900460ff166113739190612f35565b92506101000a81548160ff021916908360ff1602179055506001600a60003373ffffffffffffffffffffffffffffffffffffffff1673ffffffffffffffffffffffffffffffffffffffff16815260200190815260200160002060008282829054906101000a900460ff166113e79190612f35565b92506101000a81548160ff021916908360ff1602179055506114096008611c75565b6114136009611c75565b600061141f6008611c67565b905061142b3382611c8b565b6114358184611e65565b80915050919050565b60007f01ffc9a7000000000000000000000000000000000000000000000000000000007bffffffffffffffffffffffffffffffffffffffffffffffffffffffff1916827bffffffffffffffffffffffffffffffffffffffffffffffffffffffff1916149050919050565b60008073ffffffffffffffffffffffffffffffffffffffff166002600084815260200190815260200160002060009054906101000a900473ffffffffffffffffffffffffffffffffffffffff1673ffffffffffffffffffffffffffffffffffffffff1614159050919050565b600033905090565b816004600083815260200190815260200160002060006101000a81548173ffffffffffffffffffffffffffffffffffffffff021916908373ffffffffffffffffffffffffffffffffffffffff160217905550808273ffffffffffffffffffffffffffffffffffffffff1661158f836109b2565b73ffffffffffffffffffffffffffffffffffffffff167f8c5be1e5ebec7d5bd14f71427d1e84f3dd0314c0f7b2291e5b200ac8c7c3b92560405160405180910390a45050565b60006115e0826114a8565b61161f576040517f08c379a000000000000000000000000000000000000000000000000000000000815260040161161690612c1a565b60405180910390fd5b600061162a836109b2565b90508073ffffffffffffffffffffffffffffffffffffffff168473ffffffffffffffffffffffffffffffffffffffff16148061166c575061166b8185611007565b5b806116aa57508373ffffffffffffffffffffffffffffffffffffffff1661169284610703565b73ffffffffffffffffffffffffffffffffffffffff16145b91505092915050565b8273ffffffffffffffffffffffffffffffffffffffff166116d3826109b2565b73ffffffffffffffffffffffffffffffffffffffff1614611729576040517f08c379a000000000000000000000000000000000000000000000000000000000815260040161172090612b7a565b60405180910390fd5b600073ffffffffffffffffffffffffffffffffffffffff168273ffffffffffffffffffffffffffffffffffffffff161415611799576040517f08c379a000000000000000000000000000000000000000000000000000000000815260040161179090612bba565b60405180910390fd5b6117a4838383611ed9565b6117af60008261151c565b6001600360008573ffffffffffffffffffffffffffffffffffffffff1673ffffffffffffffffffffffffffffffffffffffff16815260200190815260200160002060008282546117ff9190612f9d565b925050819055506001600360008473ffffffffffffffffffffffffffffffffffffffff1673ffffffffffffffffffffffffffffffffffffffff16815260200190815260200160002060008282546118569190612edf565b92505081905550816002600083815260200190815260200160002060006101000a81548173ffffffffffffffffffffffffffffffffffffffff021916908373ffffffffffffffffffffffffffffffffffffffff160217905550808273ffffffffffffffffffffffffffffffffffffffff168473ffffffffffffffffffffffffffffffffffffffff167fddf252ad1be2c89b69c2b068fc378daa952ba7f163c4a11628f55a4df523b3ef60405160405180910390a4611915838383611ede565b505050565b6000600760009054906101000a900473ffffffffffffffffffffffffffffffffffffffff16905081600760006101000a81548173ffffffffffffffffffffffffffffffffffffffff021916908373ffffffffffffffffffffffffffffffffffffffff1602179055508173ffffffffffffffffffffffffffffffffffffffff168173ffffffffffffffffffffffffffffffffffffffff167f8be0079c531659141344cd1fd0a4f28419497f9722a3daafe3b4186f6b6457e060405160405180910390a35050565b8173ffffffffffffffffffffffffffffffffffffffff168373ffffffffffffffffffffffffffffffffffffffff161415611a4f576040517f08c379a0000000000000000000000000000000000000000000000000000000008152600401611a4690612bda565b60405180910390fd5b80600560008573ffffffffffffffffffffffffffffffffffffffff1673ffffffffffffffffffffffffffffffffffffffff16815260200190815260200160002060008473ffffffffffffffffffffffffffffffffffffffff1673ffffffffffffffffffffffffffffffffffffffff16815260200190815260200160002060006101000a81548160ff0219169083151502179055508173ffffffffffffffffffffffffffffffffffffffff168373ffffffffffffffffffffffffffffffffffffffff167f17307eab39ab6107e8899845ad3d59bd9653f200f220920489ca2b5937696c3183604051611b409190612afd565b60405180910390a3505050565b611b588484846116b3565b611b6484848484611ee3565b611ba3576040517f08c379a0000000000000000000000000000000000000000000000000000000008152600401611b9a90612b3a565b60405180910390fd5b50505050565b606060405180602001604052806000815250905090565b6060611bcb826114a8565b611c0a576040517f08c379a0000000000000000000000000000000000000000000000000000000008152600401611c0190612d7a565b60405180910390fd5b6000611c14611ba9565b90506000815111611c345760405180602001604052806000815250611c5f565b80611c3e8461207a565b604051602001611c4f929190612a72565b6040516020818303038152906040525b915050919050565b600081600001549050919050565b6001816000016000828254019250508190555050565b600073ffffffffffffffffffffffffffffffffffffffff168273ffffffffffffffffffffffffffffffffffffffff161415611cfb576040517f08c379a0000000000000000000000000000000000000000000000000000000008152600401611cf290612cda565b60405180910390fd5b611d04816114a8565b15611d44576040517f08c379a0000000000000000000000000000000000000000000000000000000008152600401611d3b90612b9a565b60405180910390fd5b611d5060008383611ed9565b6001600360008473ffffffffffffffffffffffffffffffffffffffff1673ffffffffffffffffffffffffffffffffffffffff1681526020019081526020016000206000828254611da09190612edf565b92505081905550816002600083815260200190815260200160002060006101000a81548173ffffffffffffffffffffffffffffffffffffffff021916908373ffffffffffffffffffffffffffffffffffffffff160217905550808273ffffffffffffffffffffffffffffffffffffffff16600073ffffffffffffffffffffffffffffffffffffffff167fddf252ad1be2c89b69c2b068fc378daa952ba7f163c4a11628f55a4df523b3ef60405160405180910390a4611e6160008383611ede565b5050565b611e6e826114a8565b611ead576040517f08c379a0000000000000000000000000000000000000000000000000000000008152600401611ea490612c9a565b60405180910390fd5b80600660008481526020019081526020016000209080519060200190611ed492919061224a565b505050565b505050565b505050565b6000611f048473ffffffffffffffffffffffffffffffffffffffff16612227565b1561206d578373ffffffffffffffffffffffffffffffffffffffff1663150b7a02611f2d611514565b8786866040518563ffffffff1660e01b8152600401611f4f9493929190612ab1565b602060405180830381600087803b158015611f6957600080fd5b505af1925050508015611f9a57506040513d601f19601f82011682018060405250810190611f9791906125f6565b60015b61201d573d8060008114611fca576040519150601f19603f3d011682016040523d82523d6000602084013e611fcf565b606091505b50600081511415612015576040517f08c379a000000000000000000000000000000000000000000000000000000000815260040161200c90612b3a565b60405180910390fd5b805181602001fd5b63150b7a0260e01b7bffffffffffffffffffffffffffffffffffffffffffffffffffffffff1916817bffffffffffffffffffffffffffffffffffffffffffffffffffffffff191614915050612072565b600190505b949350505050565b606060008214156120c2576040518060400160405280600181526020017f30000000000000000000000000000000000000000000000000000000000000008152509050612222565b600082905060005b600082146120f45780806120dd906130f7565b915050600a826120ed9190612f6c565b91506120ca565b60008167ffffffffffffffff811115612136577f4e487b7100000000000000000000000000000000000000000000000000000000600052604160045260246000fd5b6040519080825280601f01601f1916602001820160405280156121685781602001600182028036833780820191505090505b5090505b6000851461221b576001826121819190612f9d565b9150600a856121909190613140565b603061219c9190612edf565b60f81b8183815181106121d8577f4e487b7100000000000000000000000000000000000000000000000000000000600052603260045260246000fd5b60200101907effffffffffffffffffffffffffffffffffffffffffffffffffffffffffffff1916908160001a905350600a856122149190612f6c565b945061216c565b8093505050505b919050565b6000808273ffffffffffffffffffffffffffffffffffffffff163b119050919050565b82805461225690613094565b90600052602060002090601f01602090048101928261227857600085556122bf565b82601f1061229157805160ff19168380011785556122bf565b828001600101855582156122bf579182015b828111156122be5782518255916020019190600101906122a3565b5b5090506122cc91906122d0565b5090565b5b808211156122e95760008160009055506001016122d1565b5090565b60006123006122fb84612e3a565b612e15565b90508281526020810184848401111561231857600080fd5b612323848285613052565b509392505050565b600061233e61233984612e6b565b612e15565b90508281526020810184848401111561235657600080fd5b612361848285613052565b509392505050565b600081359050612378816137d8565b92915050565b60008135905061238d816137ef565b92915050565b6000813590506123a281613806565b92915050565b6000815190506123b781613806565b92915050565b600082601f8301126123ce57600080fd5b81356123de8482602086016122ed565b91505092915050565b600082601f8301126123f857600080fd5b813561240884826020860161232b565b91505092915050565b6000813590506124208161381d565b92915050565b60006020828403121561243857600080fd5b600061244684828501612369565b91505092915050565b6000806040838503121561246257600080fd5b600061247085828601612369565b925050602061248185828601612369565b9150509250929050565b6000806000606084860312156124a057600080fd5b60006124ae86828701612369565b93505060206124bf86828701612369565b92505060406124d086828701612411565b9150509250925092565b600080600080608085870312156124f057600080fd5b60006124fe87828801612369565b945050602061250f87828801612369565b935050604061252087828801612411565b925050606085013567ffffffffffffffff81111561253d57600080fd5b612549878288016123bd565b91505092959194509250565b6000806040838503121561256857600080fd5b600061257685828601612369565b92505060206125878582860161237e565b9150509250929050565b600080604083850312156125a457600080fd5b60006125b285828601612369565b92505060206125c385828601612411565b9150509250929050565b6000602082840312156125df57600080fd5b60006125ed84828501612393565b91505092915050565b60006020828403121561260857600080fd5b6000612616848285016123a8565b91505092915050565b60006020828403121561263157600080fd5b600082013567ffffffffffffffff81111561264b57600080fd5b612657848285016123e7565b91505092915050565b60006020828403121561267257600080fd5b600061268084828501612411565b91505092915050565b61269281612fd1565b82525050565b6126a181612fe3565b82525050565b60006126b282612e9c565b6126bc8185612eb2565b93506126cc818560208601613061565b6126d58161322d565b840191505092915050565b60006126eb82612ea7565b6126f58185612ec3565b9350612705818560208601613061565b61270e8161322d565b840191505092915050565b600061272482612ea7565b61272e8185612ed4565b935061273e818560208601613061565b80840191505092915050565b6000612757603283612ec3565b91506127628261323e565b604082019050919050565b600061277a602683612ec3565b91506127858261328d565b604082019050919050565b600061279d602583612ec3565b91506127a8826132dc565b604082019050919050565b60006127c0601c83612ec3565b91506127cb8261332b565b602082019050919050565b60006127e3602483612ec3565b91506127ee82613354565b604082019050919050565b6000612806601983612ec3565b9150612811826133a3565b602082019050919050565b6000612829602083612ec3565b9150612834826133cc565b602082019050919050565b600061284c602c83612ec3565b9150612857826133f5565b604082019050919050565b600061286f603883612ec3565b915061287a82613444565b604082019050919050565b6000612892602a83612ec3565b915061289d82613493565b604082019050919050565b60006128b5602983612ec3565b91506128c0826134e2565b604082019050919050565b60006128d8602e83612ec3565b91506128e382613531565b604082019050919050565b60006128fb601783612ec3565b915061290682613580565b602082019050919050565b600061291e602083612ec3565b9150612929826135a9565b602082019050919050565b6000612941603183612ec3565b915061294c826135d2565b604082019050919050565b6000612964602c83612ec3565b915061296f82613621565b604082019050919050565b6000612987602083612ec3565b915061299282613670565b602082019050919050565b60006129aa601c83612ec3565b91506129b582613699565b602082019050919050565b60006129cd602f83612ec3565b91506129d8826136c2565b604082019050919050565b60006129f0602183612ec3565b91506129fb82613711565b604082019050919050565b6000612a13603183612ec3565b9150612a1e82613760565b604082019050919050565b6000612a36601f83612ec3565b9150612a41826137af565b602082019050919050565b612a558161303b565b82525050565b6000612a678284612719565b915081905092915050565b6000612a7e8285612719565b9150612a8a8284612719565b91508190509392505050565b6000602082019050612aab6000830184612689565b92915050565b6000608082019050612ac66000830187612689565b612ad36020830186612689565b612ae06040830185612a4c565b8181036060830152612af281846126a7565b905095945050505050565b6000602082019050612b126000830184612698565b92915050565b60006020820190508181036000830152612b3281846126e0565b905092915050565b60006020820190508181036000830152612b538161274a565b9050919050565b60006020820190508181036000830152612b738161276d565b9050919050565b60006020820190508181036000830152612b9381612790565b9050919050565b60006020820190508181036000830152612bb3816127b3565b9050919050565b60006020820190508181036000830152612bd3816127d6565b9050919050565b60006020820190508181036000830152612bf3816127f9565b9050919050565b60006020820190508181036000830152612c138161281c565b9050919050565b60006020820190508181036000830152612c338161283f565b9050919050565b60006020820190508181036000830152612c5381612862565b9050919050565b60006020820190508181036000830152612c7381612885565b9050919050565b60006020820190508181036000830152612c93816128a8565b9050919050565b60006020820190508181036000830152612cb3816128cb565b9050919050565b60006020820190508181036000830152612cd3816128ee565b9050919050565b60006020820190508181036000830152612cf381612911565b9050919050565b60006020820190508181036000830152612d1381612934565b9050919050565b60006020820190508181036000830152612d3381612957565b9050919050565b60006020820190508181036000830152612d538161297a565b9050919050565b60006020820190508181036000830152612d738161299d565b9050919050565b60006020820190508181036000830152612d93816129c0565b9050919050565b60006020820190508181036000830152612db3816129e3565b9050919050565b60006020820190508181036000830152612dd381612a06565b9050919050565b60006020820190508181036000830152612df381612a29565b9050919050565b6000602082019050612e0f6000830184612a4c565b92915050565b6000612e1f612e30565b9050612e2b82826130c6565b919050565b6000604051905090565b600067ffffffffffffffff821115612e5557612e546131fe565b5b612e5e8261322d565b9050602081019050919050565b600067ffffffffffffffff821115612e8657612e856131fe565b5b612e8f8261322d565b9050602081019050919050565b600081519050919050565b600081519050919050565b600082825260208201905092915050565b600082825260208201905092915050565b600081905092915050565b6000612eea8261303b565b9150612ef58361303b565b9250827fffffffffffffffffffffffffffffffffffffffffffffffffffffffffffffffff03821115612f2a57612f29613171565b5b828201905092915050565b6000612f4082613045565b9150612f4b83613045565b92508260ff03821115612f6157612f60613171565b5b828201905092915050565b6000612f778261303b565b9150612f828361303b565b925082612f9257612f916131a0565b5b828204905092915050565b6000612fa88261303b565b9150612fb38361303b565b925082821015612fc657612fc5613171565b5b828203905092915050565b6000612fdc8261301b565b9050919050565b60008115159050919050565b60007fffffffff0000000000000000000000000000000000000000000000000000000082169050919050565b600073ffffffffffffffffffffffffffffffffffffffff82169050919050565b6000819050919050565b600060ff82169050919050565b82818337600083830152505050565b60005b8381101561307f578082015181840152602081019050613064565b8381111561308e576000848401525b50505050565b600060028204905060018216806130ac57607f821691505b602082108114156130c0576130bf6131cf565b5b50919050565b6130cf8261322d565b810181811067ffffffffffffffff821117156130ee576130ed6131fe565b5b80604052505050565b60006131028261303b565b91507fffffffffffffffffffffffffffffffffffffffffffffffffffffffffffffffff82141561313557613134613171565b5b600182019050919050565b600061314b8261303b565b91506131568361303b565b925082613166576131656131a0565b5b828206905092915050565b7f4e487b7100000000000000000000000000000000000000000000000000000000600052601160045260246000fd5b7f4e487b7100000000000000000000000000000000000000000000000000000000600052601260045260246000fd5b7f4e487b7100000000000000000000000000000000000000000000000000000000600052602260045260246000fd5b7f4e487b7100000000000000000000000000000000000000000000000000000000600052604160045260246000fd5b6000601f19601f8301169050919050565b7f4552433732313a207472616e7366657220746f206e6f6e20455243373231526560008201527f63656976657220696d706c656d656e7465720000000000000000000000000000602082015250565b7f4f776e61626c653a206e6577206f776e657220697320746865207a65726f206160008201527f6464726573730000000000000000000000000000000000000000000000000000602082015250565b7f4552433732313a207472616e736665722066726f6d20696e636f72726563742060008201527f6f776e6572000000000000000000000000000000000000000000000000000000602082015250565b7f4552433732313a20746f6b656e20616c7265616479206d696e74656400000000600082015250565b7f4552433732313a207472616e7366657220746f20746865207a65726f2061646460008201527f7265737300000000000000000000000000000000000000000000000000000000602082015250565b7f4552433732313a20617070726f766520746f2063616c6c657200000000000000600082015250565b7f54686973204e46542068617320616c7265616479206265656e206d696e746564600082015250565b7f4552433732313a206f70657261746f7220717565727920666f72206e6f6e657860008201527f697374656e7420746f6b656e0000000000000000000000000000000000000000602082015250565b7f4552433732313a20617070726f76652063616c6c6572206973206e6f74206f7760008201527f6e6572206e6f7220617070726f76656420666f7220616c6c0000000000000000602082015250565b7f4552433732313a2062616c616e636520717565727920666f7220746865207a6560008201527f726f206164647265737300000000000000000000000000000000000000000000602082015250565b7f4552433732313a206f776e657220717565727920666f72206e6f6e657869737460008201527f656e7420746f6b656e0000000000000000000000000000000000000000000000602082015250565b7f45524337323155524953746f726167653a2055524920736574206f66206e6f6e60008201527f6578697374656e7420746f6b656e000000000000000000000000000000000000602082015250565b7f4574686572207061696420697320696e636f7272656374000000000000000000600082015250565b7f4552433732313a206d696e7420746f20746865207a65726f2061646472657373600082015250565b7f45524337323155524953746f726167653a2055524920717565727920666f722060008201527f6e6f6e6578697374656e7420746f6b656e000000000000000000000000000000602082015250565b7f4552433732313a20617070726f76656420717565727920666f72206e6f6e657860008201527f697374656e7420746f6b656e0000000000000000000000000000000000000000602082015250565b7f4f776e61626c653a2063616c6c6572206973206e6f7420746865206f776e6572600082015250565b7f596f752068617665206578636565646564204d617820537570706c7900000000600082015250565b7f4552433732314d657461646174613a2055524920717565727920666f72206e6f60008201527f6e6578697374656e7420746f6b656e0000000000000000000000000000000000602082015250565b7f4552433732313a20617070726f76616c20746f2063757272656e74206f776e6560008201527f7200000000000000000000000000000000000000000000000000000000000000602082015250565b7f4552433732313a207472616e736665722063616c6c6572206973206e6f74206f60008201527f776e6572206e6f7220617070726f766564000000000000000000000000000000602082015250565b7f596f752068617665206578636565646564206d696e74696e67206c696d697400600082015250565b6137e181612fd1565b81146137ec57600080fd5b50565b6137f881612fe3565b811461380357600080fd5b50565b61380f81612fef565b811461381a57600080fd5b50565b6138268161303b565b811461383157600080fd5b5056fea26469706673582212202f72febdbe03f41f2b47eccadcf8b776a6897e54e3fd0a392a3c583972c8964664736f6c63430008040033",
    "linkReferences": {},
    "deployedLinkReferences": {}
}